:02000002B0004C
:1040000000400B009E770B00000006000C0005022C
:084010000401B41400000000DB
:0440180030690B0000
:10401C00034613F8012B002AFBD1181A01387047FC
:10402C0009480A49884208B505D0094A824202D09B
:10403C00121A02F0C5FB0748074A0021121A02F0B7
:10404C00CDFB014808BD00BFC8E5032004770B0079
:10405C0034E6032034E60320F0E7032070B5074E66
:10406C00074C01F0A5FFA41BA4080025AC4200D10D
:10407C0070BD56F8043B98470135F7E7BC760B004A
:10408C00E0760B0000F028B808B500F081F8BDE828
:10409C00084001F045BF01F043BC01F049BC0000F1
:1040AC0008B5034A03490C2001F09EFBFEE700BF54
:1040BC0065550B0044690B000078B0FA80F040099C
:1040CC007047012303707047024A13680133136071
:1040DC00704700BF44E6032030B58BB002F074F893
:1040EC004FF4165102F060F802F06EF802F060F82E
:1040FC000028F9D002210720204C02F09DFA00255F
:10410C000221062002F098FA02221D4900954FF078
:10411C00FF33072002F080F8204600F001FD204616
:10412C0000F0BAFE4FF0011320460121636100F04C
:10413C00A8FC1449256106A801F0BBFD124B0A220C
:10414C00196802A801F0DBFD02A906A801F001FE26
:10415C000168204601F04DFE02A801F05FFD06A8A3
:10416C0001F05CFD02F030F8084901F042FE2046F7
:10417C000BB0BDE8304001F0FDB800BF48E60320AD
:10418C00D5400B0059690B0044E6032063690B0012
:10419C0010B51C4C88B0204600F07EFE00231A4956
:1041AC00236104A801F085FD184B0A2219686846A2
:1041BC0001F0A5FD694604A801F0CBFD016820467D
:1041CC0001F017FE684601F029FD04A801F026FD58
:1041DC00204601F0CFF8062002F058FA78B90C4AC4
:1041EC00137883F00103137023B108B0BDE81040BD
:1041FC0002F03EB808B0BDE8104002F037B808B085
:10420C0010BD00BF48E6032059690B0044E60320AB
:10421C0040E6032010B5094B094A9A600024C3E913
:10422C000044032001F0E8FA2146012001F0F4FAE1
:10423C00BDE810400348072100F044BC34E60320DD
:10424C000000FFFF48E60320704710B5102104461C
:10425C00FFF723FF204610BD0EB403B503AB0021BE
:10426C0053F8042B019301F0ECFD02B05DF804EB64
:10427C0003B0704773B5044608462279A36832B17F
:10428C00A3B90B4902B0BDE8704001F09FBD094ACB
:10429C00267B094D0949647B012E18BF2946CDE9BF
:1042AC0000140749FFF7D8FF02B070BD054AEFE7CD
:1042BC0088690B0062690B0084690B0080690B0034
:1042CC009E690B0077690B002DE9F04F85B01F46F6
:1042DC00BDF93880BDF83C30A8EB0209A7EB010A08
:1042EC00B9F1000FB8BFC9F10009BAF1000FB8BF9E
:1042FC00CAF1000AD14583460C46154604DD3A4600
:10430C002C4647460D469046BC4205DD2A4645469E
:10431C00904622463C4617463E1BB2B20092A8EB92
:10432C00050282EAE271A1EBE271C6F3C03202FA35
:10433C0086F64545B4BF01224FF0FF32019176104D
:10434C000292BC421CDCDBF800200393D145D2F86E
:10435C001880C7BF294622462A4621465846C047E0
:10436C00019A039BB61AB1B236B2002E05DA029A44
:10437C001544009A56182DB236B2013424B2E0E737
:10438C0005B0BDE8F08F704710B404682469A446EA
:10439C005DF8044B604730B40468BDF808500295D2
:1043AC00A46BA44630BC604730B40468BDF8085018
:1043BC000295E46BA44630BC604770B4BDF90C5058
:1043CC00BDF810600468CDE90356246CA44670BC9B
:1043DC0060472DE9F3411C460368BDF820805B69FA
:1043EC0005461646013C34440F4624B298472B68C8
:1043FC00CDF8048000949C6A28463B4632463946E8
:10440C00A0472B68DB6A284602B0BDE8F04118478C
:10441C002DE9F3411D460368BDF820805B69044615
:10442C0017460E469847CDE9007822686B1E334438
:10443C00956A20461BB23A463146A8472368DB6A88
:10444C00204602B0BDE8F04118472DE9F3471E465F
:10445C000368BDF928905B69BDF82C800C460546B5
:10446C00174698472644B4422B680BDACDF80080E7
:10447C00D3F820A021464B463A4628460134D04773
:10448C0024B2F0E7DB6A284602B0BDE8F0471847D3
:10449C0013B502680191B0F90E100091146CB0F9CB
:1044AC000C3000221146A04702B010BD2DE9F74395
:1044BC0099421646BDF92870BDF82C9002688046CA
:1044CC000D461C4613D1BE42C8BF3346CDF82890CA
:1044DC00C4BF3E461F467B1C946B9B1B1BB23246D3
:1044EC0029464046A44603B0BDE8F0436047BE42AF
:1044FC000AD19942C2BF0B4625461C46631CCDF817
:10450C002890D46B5B1BE9E753699847CDE9007998
:10451C00D8F8003040469F6A324623462946B847B1
:10452C00D8F80030DB6A404603B0BDE8F0431847CA
:10453C002DE9F3471D460368BDF82C805B69BDF976
:10454C00289004460F46164698472368CDF80080FD
:10455C00D3F824A032462B4639462046D047236850
:10456C00CDF8008009F1FF323244D3F824A039464B
:10457C002B46204612B2D0472368CDF80080D3F8E2
:10458C0020A032464B4639462046D0476B1ED919DF
:10459C002368CDF800801D6A20464B46324609B28E
:1045AC00A8472368DB6A204602B0BDE8F0471847ED
:1045BC00704701F00303B0F90A208376C907B0F9FC
:1045CC00083059BF8381C2818281C381704700004A
:1045DC0030B54281C281074A074D01810024818197
:1045EC004FF0FF31C0E905124460056004610477A7
:1045FC00046230BD01010001C46E0B002DE9F04FC7
:10460C0089B0CDE902120268BDF948800493BDF966
:10461C004C3052690593BDF850A00446904718F1F0
:10462C0007024FF0000648BF08F10E024FEAE20BFA
:10463C0001963546039B019ABDF904109A18059B07
:10464C008B4212B227DD049B33444FF000090693D2
:10465C000FFA89F080451FFA89F117DD4F0705BF66
:10466C00069BC0106D001D5C18BFEDB22B060AD561
:10467C00029B206807921944836909B21F462046A1
:10468C005346B847079A09F10109E1E7019B013349
:10469C0001935E44CEE72368DB6A204609B0BDE88F
:1046AC00F04F18472DE9F04F2DED028B91B01646C7
:1046BC00026ABDF874809DF878509DF87C40039197
:1046CC001F46BDF8703004938346002A40F0C58025
:1046DC00B0F90C308B4240F34C81B0F90E30B34240
:1046EC0040F34781062313FB0513002B40F3418154
:1046FC0006EBC403002B40F33C81037F1BB9AF2FA7
:10470C0084BF0137FFB2DBF8003058465B6998472D
:10471C000522099200220592984A07EB8703D318C9
:10472C000C93B3B20693059A0C9B9B5C0793ABB2AC
:10473C000B93BDF80C300893039B02FB05F919FA97
:10474C0083F90FFA89F308EE103A08230A93039BB6
:10475C0002EB030A4FF000090FFA8AFA079ADBF80A
:10476C000030D20752D5012D1FFA89F23ED1012C0F
:10477C003CD19B6906991F46049B0A4412B25146D0
:10478C005846B84709F101034FFA83F9079B5B08B8
:10479C0007930A9B013B13F0FF030A93DED1059F9D
:1047AC0001377BB20593099B013B13F0FF0309937F
:1047BC00B9D1049B43450FD0012DDBF800303BD120
:1047CC00012C39D10899CDF8008005311C6A32468C
:1047DC00082309B25846A047DBF80030DB6A58467C
:1047EC0011B0BDEC028BBDE8F04F1847069914FBD5
:1047FC0002F20A44049901910094DB6918EE101A34
:10480C001F4612B22B465846B847BBE7049A42459E
:10481C00B8D0012D1FFA89F207D1012C05D19B6963
:10482C0006991F460A444346A8E70699CDF804802A
:10483C0014FB02F20A44DFE70B9ACDF8048002EB7A
:10484C008201089AE4000A4411460094DC6932465D
:10485C002B4609B25846A047BEE7137A5168126836
:10486C000B92FF1AFFB201EBC70331F83720069207
:10487C009A780992DA780C92012D93F9052093F924
:10488C0006A00A9201D8012C57D9BDF928300893FB
:10489C000FFA8AF30793DBF8003058465B699847A8
:1048AC00B3B24FF000080E931AFA86F3C14647468E
:1048BC000F930C9B9F428FD2079B0E9A3B4403FB9A
:1048CC000423002205920F9A1BB202EB070A08EE92
:1048DC00103A0FFA8AFA4346099A0599914241D245
:1048EC005A1CD2B25B070D9207D1069B06990B9A04
:1048FC0001339BB212F80190069319F0800F12D07D
:10490C00012DDBF80030BDF80C101AD1012C18D198
:10491C000A9A9B691144059A11441E465246049BFF
:10492C0009B25846B047059E0136F3B24FEA490921
:10493C0005935FFA89F90D9BCEE70023CDE9073388
:10494C00A9E70598089A024402FB0511049ACDE9DF
:10495C000042DB6918EE102A1E4609B22B46584657
:10496C00B047E0E7099B013798445FFA88F8FFB23B
:10497C009FE711B0BDEC028BBDE8F08FBB690B005B
:10498C00F0B5026A85B004460B46002A34D10A29D8
:10499C0008D1438A0282427E03EBC2036382012068
:1049AC0005B0F0BD0D29FAD0E17E007E657E71B1B7
:1049BC00B4F91060062111FB0061B4F90C60B1422E
:1049CC00C1BFB4F91210228201EBC5026282E28AE5
:1049DC000192A28A0092CDE90205B4F91220B4F931
:1049EC0010102046FFF75EFE237E228A03EB430362
:1049FC0002EB43032382D2E70A2907D10023038267
:104A0C00417E927A438A01FB0233C7E70D29C6D057
:104A1C00157AA942C3D3517A9942C0D351685D1B10
:104A2C00EDB201EBC505A87828B3E97819B3E17E9E
:104A3C00267E677E91B195F905100844B4F91010E3
:104A4C0006FB0011B4F90C00814207DD0020208226
:104A5C00B4F91210927A02FB07126282E28A019276
:104A6C00A28A0092CDE90267B4F91220B4F91010B1
:104A7C002046FFF717FE2979227E238A01FB023399
:104A8C00B8E7012938BF0121017641767047000053
:104A9C0010B5064B03600446006D08B100F074FDC0
:104AAC00204600F087F8204610BD00BF1C6F0B009D
:104ABC0010B50446FFF7ECFF20467021FFF7EDFA26
:104ACC00204610BD30B585B004460D4601F04CFEB5
:104ADC00104A1149CDE901214FF0FF3280210346E4
:104AEC0000922046202200F0DDF80C4B23600023BE
:104AFC00C4E9143504F1580000F03BF804F16000EF
:104B0C0000F037F804F1680000F033F8204605B0E7
:104B1C0030BD00BF801A0600A08601001C6F0B0080
:104B2C0013B50446503000F027FD636DD90705D549
:104B3C000222042104F1580000F02FF8636D9A074B
:104B4C0005D50022032104F1600000F026F8636D06
:104B5C005B0705D50222114604F1680000F01DF830
:104B6C00012300933C220221204600F0A3F902B05D
:104B7C0010BD00210A22C0E900127047002310B5B5
:104B8C000446C171837188B201F080FD08B1032322
:104B9C00A37100F0E9FC206010BD38B50C46054649
:104BAC001146A0B201F048FD21462846BDE8384028
:104BBC00FFF7E4BF10B5044B03600446C06A08B1AC
:104BCC0000F0B6FE204610BD28740B0010B504464C
:104BDC00FFF7F0FF20465021FFF75FFA204610BD8B
:104BEC00002910B54BDBB0F90C408C4247DD002A94
:104BFC0045DBB0F90E40944241DD847E022C1FD07F
:104C0C00032C26D0012C04D10489D24314440A4627
:104C1C0021B2012B23D0022B32D083BB002A1346A6
:104C2C000489C06AB8BFD31DDB1013FB041102F05A
:104C3C00070201239340425C22EA030242541EE025
:104C4C000489013C611A4489D243224409B212B24C
:104C5C00DFE74489013C641A114622B2D9E7002AE5
:104C6C0004891346B8BFD31DDB1013FB0411C36AB0
:104C7C0002F0070001228240585C02435A5410BDD6
:104C8C00002A13460489C06AB8BFD31DDB1013FB7E
:104C9C00041102F00702012303FA02F2435C5A40AA
:104CAC00CCE7000070B504461D460026FFF790FCCB
:104CBC00114B2360666215B901F056FD0546FF23C2
:104CCC0084F8333084F836309DF9103084F837305E
:104CDC000A4BA363012384F83C30059BA3644FF675
:104CEC00FF72069BA286C4E90A562664A4F84460A7
:104CFC00E364204670BD00BF28740B00746F0B007A
:104D0C00F8B50446806A0D4690B194F9301001F064
:104D1C005BFBA06A036800219B689847A06A036844
:104D2C0029469B689847A06ABDE8F84001F053BB40
:104D3C0094F93530014698B201F08FFC606A20B1CD
:104D4C002946BDE8F84000F005BF0826802794F9F5
:104D5C00330005EA070180B201F07FFC94F93400BE
:104D6C00012180B201F079FC94F93400002180B269
:104D7C0001F073FC013E4FEA5707E8D1F8BD38B596
:104D8C000446806A0D4680B1A16C01F00FFB002D2A
:104D9C00204614BFA721A621FFF7B2FFA06A88B155
:104DAC00E16CBDE8384001F001BB606A18B104F158
:104DBC00380100F061FE94F93600002180B201F058
:104DCC004CFCE4E794F93600012180B201F045FC7B
:104DDC00606A18B1BDE8384000F034BE38BD2DE92A
:104DEC00F8430446806A0D468F1840B394F930108E
:104DFC0001F0EAFAA06A036800219B689847012633
:104E0C00AF42A06A17D01F2E0CD901F0E4FA94F926
:104E1C003010A06A01F0D8FAA06A036800219B68E0
:104E2C0098470126A06A15F8011B036801369B6898
:104E3C009847F6B2E4E7BDE8F84301F0CCBA94F930
:104E4C003530014698B201F008FCBD4222D0606AB0
:104E5C0015F8019B18B1494600F07CFEF5E70826D1
:104E6C004FF0800894F9330009EA080180B201F090
:104E7C00F4FB94F93400012180B201F0EEFB94F9BB
:104E8C003400002180B201F0E8FB013E4FEA5808E3
:104E9C00E8D1DAE7BDE8F883B0F90A30DA1D48BF8B
:104EAC0003F10E02B0F90830C06AD2105A43002147
:104EBC0001F094BC2DE9FF411E46C36A9DF8288081
:104ECC0004460F461546C3B12046FFF7E5FFB4F97B
:104EDC000A00B4F90810202821DC202301222038F4
:104EEC00CDE9013200EBD07073237339009301EBE1
:104EFC00D171894B40F34F0221E0B0F90A30D81D33
:104F0C0048BF03F10E00B4F90830C010584300F04C
:104F1C0007FDE0620028D7D104B0BDE8F08140382D
:104F2C00C0F3C03202FA80F240230120CDE90130F7
:104F3C00522352390093794B01EBD1715210204618
:104F4C0041F34F01FFF75AFBA06A84F83170002837
:104F5C0078D0002D74D1B4F90A30202B0CBF3C252D
:104F6C003D2584F83050B8F1000F01D001F022FA41
:104F7C00FEB194F9370000281BDB012180B201F04F
:104F8C005BFB94F93700012180B201F066FB012034
:104F9C0000F09AFF94F93700002180B201F05DFB1C
:104FAC000A2000F091FF94F93700012180B201F042
:104FBC0054FBA06A002874D0A16C01F0F7F904220C
:104FCC0057492046FFF70BFF61890139C9B22046CA
:104FDC00FFF796FE534904222046FFF700FF94F991
:104FEC003130012B0CBF102114212046FFF788FE15
:104FFC0004224D492046FFF7F2FEA3684B4A934228
:10500C005CD14B4904222046FFF7E9FED92120460A
:10501C00FFF776FE94F93130012B0CBF2221F121E0
:10502C002046FFF76DFE204642490622FFF7D7FEC9
:10503C00A06A002863D0E16C01F0B8F901206BE79D
:10504C006DB28EE794F93500012180B201F0F4FACB
:10505C0094F93600012180B201F0EEFA94F9360091
:10506C00012180B201F0F9FA656A3DB1B8F1000F87
:10507C003FF47EAF284600F0D1FC79E794F9330079
:10508C00012180B201F0D8FA94F93400012180B2E8
:10509C0001F0D2FA94F93400294680B201F0DDFA1D
:1050AC0066E7606A18B104F1380100F0E5FC94F988
:1050BC003600002180B201F0D0FA80E71E4A9342FC
:1050CC000ED11E4903222046FFF789FE94F9313098
:1050DC00012B0CBF9F21CF212046FFF711FE95E736
:1050EC00174A934292D1174903222046FFF777FEC5
:1050FC0094F93130012B0CBF1021AF21ECE794F95E
:10510C003600012180B201F0A8FA606A002895D01F
:10511C0000F098FC92E700BF40720B00806F0B0010
:10512C0088740B008C740B0090740B0080002000B2
:10513C009A740B0094740B00800040009E740B005A
:10514C0060001000A1740B0070B5002ABDF810505F
:10515C003DDBB0F90A40944239DD0029BEBF5B1833
:10516C001BB20021B0F90840CE18A642C4BF631A86
:10517C001BB2002B2BDDC06AD61014FB06110144A8
:10518C0002F0070001228240012DD2B216D0022D6E
:10519C000BD0E5B9D243D2B20B44994217D011F8D7
:1051AC00010B104001F8010CF7E70B4499420ED0AB
:1051BC0011F8010B504001F8010CF7E70B44994230
:1051CC0005D011F8010B104301F8010CF7E770BD85
:1051DC00F0B50029BDF8145076DBB0F90860B14287
:1051EC0072DA002ABEBF9B181BB20022B0F90A402B
:1051FC00D718A742C4BFA31A1BB2002B64DDC2F39D
:10520C00C404C76A16FB041612F00702DBB207EBE4
:10521C00060423D0C2F10802D2B22D4993423CBFFE
:10522C004FF0FF0CA2EB030E895C3CBF4CFA0EFC5A
:10523C000CEA0101012D07D0022D2ED04DB917F823
:10524C0006C02CEA010103E017F806C041EA0C0184
:10525C00B955934238D3B0F908100C449A1AD2B20B
:10526C00072A0ED9022D1DD113462178C94321706E
:10527C00083BB0F90810DBB2072B0C44F5D802F050
:10528C0007020AB3134B012D9B5C1AD0022D1CD0C4
:10529C00D5B9227822EA030315E017F806C081EA93
:1052AC000C01D5E7291E18BF01214942C9B213468A
:1052BC002170083BB0F90860DBB2072B3444F7D8F7
:1052CC00DDE7227813432370F0BD22785340FAE7D0
:1052DC0078740B0080740B0070B41446827EBDF899
:1052EC000C60022A0DD0032A18D0012A11D1028990
:1052FC00E443144424B203960A46214670BCFFF7DB
:10530C0067BF42890589E44319441444691A24B2DD
:10531C0009B20396224670BCFFF716BF45891944A3
:10532C00691A09B2E7E730B41446827EBDF808501A
:10533C00022A0DD0032A18D0012A11D1E2180489AF
:10534C00A41A24B202950A46214630BCFFF7FCBED3
:10535C000289C9431144E2184489A41A09B224B23F
:10536C000295224630BCFFF733BF4289C943114432
:10537C0009B2E7E72DE9F8430446806A002842D0D9
:10538C00A16C01F013F8474905222046FFF727FDD1
:10539C00218901392046C9B2FFF7B2FCB4F90A30B1
:1053AC00DE1D48BF03F10E06D4E90A052389F61069
:1053BC0013FB06F615FA86F600283AD094F930104D
:1053CC0001F002F8A06A036840219B689847012706
:1053DC00B542A06A24D01F2F0CD900F0FCFF94F921
:1053EC003010A06A00F0F0FFA06A036840219B68AF
:1053FC0098470127A06A15F8011B036801379B68C1
:10540C009847FFB2E4E7606A18B104F1380100F084
:10541C0033FB94F93600002180B201F01EF9B2E79B
:10542C0000F0D9FFA06A78B3E16CBDE8F84300F056
:10543C00BDBF94F93500012180B201F00EF9AE42E6
:10544C00F0D0606A15F8019B18B1494600F082FB58
:10545C00F5E708274FF0800894F9330009EA0801B2
:10546C0080B201F0FAF894F93400012180B201F015
:10547C00F4F894F93400002180B201F0EEF8013F09
:10548C004FEA5808E8D1DAE794F93600012180B2E6
:10549C0001F0E3F8606A18B1BDE8F84300F0D2BA45
:1054AC00BDE8F883A4740B0008B5024B1B689B681D
:1054BC00019308BD6802030008B5024B1B68DB684A
:1054CC00019308BD6802030008B5024B1B689B687A
:1054DC00019308BD2C02030008B5024B1B68DB6866
:1054EC00019308BD2C02030008B5024B1B681B6915
:1054FC00019308BD2C02030008B5024B1B685B69C5
:10550C00019308BD2C02030008B5024B1B689B6974
:10551C00019308BD2C02030008B5024B1B68DB6924
:10552C00019308BD2C02030008B5024B1B681B6AD3
:10553C00019308BD2C02030008B5024B1B685B6A83
:10554C00019308BD2C02030008B5024B1B685B6875
:10555C00019308BD1802030008B5024B1B68DB68F9
:10556C00019308BD1802030008B5024B1B685B6968
:10557C00019308BD1802030008B5024B1B681B6B96
:10558C00019308BD4802030008B5024B1B685B6B16
:10559C00019308BD4802030008B5024B1B685B6C05
:1055AC00019308BD4802030008B5024B1B685B69F8
:1055BC00019308BD6402030008B5024B1B68DB684D
:1055CC00019308BD3C02030008B5024B1B681B6924
:1055DC00019308BD3C02030008B5024B1B685B69D4
:1055EC00019308BD3C02030008B5024B1B689B6984
:1055FC00019308BD3C02030008B5024B1B68DB6934
:10560C00019308BD3C02030008B5024B1B681B6AE2
:10561C00019308BD3C02030008B5024B1B689B6A52
:10562C00019308BD3C02030008B5024B1B681B6CC0
:10563C00019308BD3C02030008B5024B1B681B68B4
:10564C00019308BD2802030008B5024B1B68DB68F8
:10565C00019308BD2802030008B5024B1B689B6927
:10566C00019308BD2802030008B5024B1B68DB69D7
:10567C00019308BD2802030008B5024B1B681B6A86
:10568C00019308BD2802030008B5024B1B685B6A36
:10569C00019308BD2802030008B5024B1B689B6AE6
:1056AC00019308BD2802030008B5024B1B68DB6A96
:1056BC00019308BD2802030008B5024B1B681B6B45
:1056CC00019308BD2802030008B5024B1B685B6BF5
:1056DC00019308BD2802030008B5024B1B681B6C24
:1056EC00019308BD2802030008B5024B1B681B6818
:1056FC00019308BD3002030008B5024B1B685B69BF
:10570C00019308BD3002030008B5024B1B68DB692E
:10571C00019308BD3002030008B5024B1B681B6ADD
:10572C00019308BD3002030008B5024B1B685B6A8D
:10573C00019308BD3002030008B5024B1B68DB6BFC
:10574C00019308BD3002030008B5024B1B681B6CAB
:10575C00019308BD3002030008B5024B1B685B6C5B
:10576C00019308BD3002030008B5024B1B681B688F
:10577C00019308BD4C02030008B5024B1B685B6823
:10578C00019308BD4C02030008B5024B1B681B6952
:10579C00019308BD4C02030008B5024B1B685B6902
:1057AC00019308BD4C02030008B5024B1B689B69B2
:1057BC00019308BD4C02030008B5024B1B68DB6962
:1057CC00019308BD4C02030008B5024B1B681B6A11
:1057DC00019308BD4C02030008B5024B1B689B6A81
:1057EC00019308BD4C02030008B5024B1B685B6BB0
:1057FC00019308BD6002030008B5024B1B685B688F
:10580C00019308BD2002030008B5024B1B685B69BD
:10581C00019308BD2002030008B5024B1B68DB6A2C
:10582C00019308BD2002030008B5034B1B68D3F895
:10583C008830019308BD00002002030008B5034B1B
:10584C001B68D3F89430019308BD000020020300BC
:10585C0008B5024B1B685B68019308BD400203004E
:10586C0008B5024B1B689B68019308BD40020300FE
:10587C0008B5024B1B68DB68019308BD40020300AE
:10588C0008B5024B1B681B69019308BD400203005D
:10589C0008B5024B1B685B69019308BD400203000D
:1058AC0008B5024B1B689B69019308BD40020300BD
:1058BC0008B5024B1B68DB69019308BD400203006D
:1058CC0008B5024B1B681B6A019308BD400203001C
:1058DC0008B5024B1B681B6B019308BD400203000B
:1058EC0008B5024B1B685B6B019308BD40020300BB
:1058FC0008B5024B1B681B6C019308BD40020300EA
:10590C0008B5024B1B685B6C019308BD4002030099
:10591C0008B5024B1B68DB6B019308BD4402030006
:10592C0008B5024B1B681B68019308BD1C020300E1
:10593C0008B5024B1B685B68019308BD1C02030091
:10594C0008B5024B1B689B68019308BD1C02030041
:10595C0008B5024B1B685B6A019308BD1C0203006F
:10596C0008B5024B1B681B6C019308BD1C0203009D
:10597C0008B5024B1B685B6C019308BD1C0203004D
:10598C00002240681146FFF79BBF00224068114679
:10599C00FFF7A6BF40680022FFF79ABF40680022BD
:1059AC0081F00101FFF784BF002340681A461946B5
:1059BC00FFF776BF002340681A461946FFF768BF09
:1059CC00002240681146FFF75BBF00224068114679
:1059DC00FFF746BF406800220221FFF749BF0023B2
:1059EC0040681A46FFF734BF024B03225A60024A42
:1059FC001A607047C4E60320B4740B000021FFF753
:105A0C00ABBE0021FFF7A0BE10B5044608462170BE
:105A1C00FFF77AFE00236360204610BD13B50446E1
:105A2C000078FFF7EEFF58B9207801904FF6FF7120
:105A3C00FFF75AFE019802B0BDE81040FFF7DEBF39
:105A4C0002B010BD0078FFF7D9BF0000400830B598
:105A5C001860002418688842E5B206D90134082C75
:105A6C0002D040081860F5E70725024B5B5D137008
:105A7C0030BD00BFE8740B002DE9F04306468FB033
:105A8C0000780C46FFF7BDFF00281BDB357814228D
:105A9C00002109A800F0A2FE0B23002209A9284628
:105AAC00ADF82430FFF740FE9DF82D3013B19DF872
:105ABC002C5055B10027B946B846012523795DB164
:105ACC00C3B100200FB0BDE8F083DDF830809DF845
:105ADC0034909DF83570F1E7002B35D1A368434520
:105AEC0008D18DF820908DF82170BDF82020A38965
:105AFC009A42E6D00023A1688DF80F300A9804ABC7
:105B0C000DF10F02FFF7A2FF217985B989B9A368BE
:105B1C0043450ED38DF820908DF82170BDF82020D0
:105B2C00A3899A4205D1049B434502D1C9E70029B8
:105B3C00F9D100230193637B00939DF80F20237B05
:105B4C003078FFF7F9FDBCE7CDE900552B462A4626
:105B5C000121F5E708B50078FFF7CEFDC0B208BD0E
:105B6C00054B02221A60054B054A9A600020C3E9D6
:105B7C000000FFF741BE00BFD8E60320CCE60320AF
:105B8C000000FFFF10B50446FEF742FA0138231857
:105B9C002046834206D90278197800F8011B03F8D5
:105BAC000129F6E710BD70B50C46911E22291DD8AF
:105BBC00254630B9234430229D4210D205F8012BE2
:105BCC00FAE7B0FBF2F602FB1600C1B2092894BF4B
:105BDC0030315731C9B205F8011B3046E9E70023D3
:105BEC0020462B70FFF7CEFF204670BD0020FCE74F
:105BFC0038B5031E0C4615460EDAB3F1004F4FF0C4
:105C0C002D0214BF5842184601230A702A46194423
:105C1C00FFF7C9FF204638BD0123F9E710B504464C
:105C2C000068FFF785FE204610BD10B504460068DD
:105C3C0008B1FFF77DFE0023C4E90133236010BDDA
:105C4C0038B504460D4600680131FFF779FE10B1F6
:105C5C00C4E90005012038BD10B50368044623B122
:105C6C0043688B4201D3012010BD2046FFF7E8FFAB
:105C7C000028F9D0A368002BF5D122681370F2E745
:105C8C0037B50D46114601920446FFF7E5FF019A20
:105C9C0028B92046FFF7C9FF204603B030BDA260EB
:105CAC002946206800F08CFD2268A3680021D1549D
:105CBC00F2E7002313B5C0E9003304468360037395
:105CCC0041B108460191FEF7A3F90199024620461D
:105CDC00FFF7D6FF204602B010BD13B5044659B1EC
:105CEC0008460191FEF794F9019902462046FFF708
:105CFC00C7FF204602B010BDFFF797FFF9E710B5BC
:105D0C0004468AB00023C4E90033A3602373084619
:105D1C0001A9FFF76DFF01A92046FFF7DEFF204622
:105D2C000AB010BD70B505460E4609B9002070BD0D
:105D3C006AB1846814442146FFF78EFF0028F5D021
:105D4C002868AB683146184400F07EFDAC60012039
:105D5C00EDE710B58A6809680446FFF7E3FF10B950
:105D6C002046FFF762FF204610BD000002480023CA
:105D7C000360FFF711BC00BFDCE60320F8B5064654
:105D8C000D468F180024BD420CD0336815F8011B4A
:105D9C009B6830469847031E01DB1C44F3E7002C3C
:105DAC0008BF1C462046F8BD13B50446084659B139
:105DBC000191FEF72DF923680199DB680246204614
:105DCC0002B0BDE81040184702B010BD08B5FFF78F
:105DDC00EBFF08BD03689B68184738B50D210546D5
:105DEC00FFF7F8FF0A2104462846FFF7F3FF20448B
:105DFC0038BD38B50546FFF7D7FF04462846FFF7F0
:105E0C00ECFF204438BD30B58BB00023012A8DF84F
:105E1C00243098BF0A2209AC0D46B1FBF2F101FB0C
:105E2C00125303F0FF03092B94BF30333733DBB22B
:105E3C00AA4204F8013DEFD92146FFF7B5FF0BB09C
:105E4C0030BD2DE9F04186B000AF05460E46381D39
:105E5C00142114463B60FFF77BFD13280ED8391D27
:105E6C002846FFF7A1FF04461EB12846FFF7B5FFF1
:105E7C00044420461837BD46BDE8F08100F1080304
:105E8C0023F00703E846ADEB030D2246411C3B68AB
:105E9C006846FFF75DFD69462846FFF785FF044617
:105EAC00C546E1E7014B024A1A607047E0E6032061
:105EBC00F0740B00024B1A68024B1A60704700BF5B
:105ECC00C8E50320E4E603200021FFF79DBC000099
:105EDC00014B00229A607047E8E60320014B1860E2
:105EEC00704700BFCCE5032008B50B4B43B100F065
:105EFC006BF903681B699847002801DDAFF300803C
:105F0C00064B43B100F0F0FB03681B69984700286F
:105F1C0001DDAFF3008008BD0000000000000000B0
:105F2C0008B5FFF7E1FFFFF71FFB014B186008BD39
:105F3C0040E703200548064A064908B5121A00F046
:105F4C003FFC054B054A1A6008BD00BF00F4032056
:105F5C0004F4032070770B0000F403201E1C279A16
:105F6C0007B5002300931A466FF07701FFF766FC24
:105F7C0003B05DF804FB000007B543880A2B08D07A
:105F8C00502B0BD1094B1B684BB103B05DF804EBE4
:105F9C001847FFF7E5FF03B05DF804FB00230093FF
:105FAC001A466FF07701FFF749FCF4E7FCE6032093
:105FBC0010B512480021FFF7DBFC114B1A68114B8E
:105FCC009A42114B0CBF012200221A7001D0FFF72C
:105FDC00B1FFFFF7B9FA044600F008FC0B4B13B104
:105FEC002046AFF3008000210848FFF791FCBDE884
:105FFC00104007480021FFF717BC00BFE95E0B00FB
:10600C0000F403201E1C279AF8E603200000000071
:10601C00855F0B00704710B518210446FEF73DF85C
:10602C00204610BDF0B5037D062B8DB00E4600F159
:10603C0004074FF0000412D000F1080515F8011DFB
:10604C000A223046FFF7DFFEAF42044419D0002C81
:10605C00F4D02E213046FFF7BDFE0444EEE72F238B
:10606C006A4639460A208DF80040FFF79DFA6846CB
:10607C00FDF7CEFF33680246DB6869463046984729
:10608C00044620460DB0F0BD10B5054B0446112258
:10609C0040F8043B002100F0A1FB204610BD00BFDE
:1060AC0018750B000346074A10B543F8042B01F191
:1060BC00100251F8044B43F8044B9142F9D10A7881
:1060CC001A7010BD18750B0010B59DF8084044EA05
:1060DC00032343EA024242EA01610423416003754F
:1060EC0010BD000007B5064B0360CB7800938B788E
:1060FC004A780978FFF7E8FF03B05DF804FB00BFAE
:10610C0018750B00417470477047704708B5002133
:10611C00007CFFF749FB40EAE07008BD08B501219F
:10612C00007CFFF741FB40EAE07008BD08B5007C3D
:10613C00FFF732FB20EAE07008BD08B5007CFFF7E2
:10614C0023FB20EAE07008BD13B50446007C0191E6
:10615C00FFF722FB0028019901DC607C20B1207C38
:10616C00FFF72AFB20EAE07002B010BD007CFFF7BD
:10617C002BBB10B514210446FDF78FFF204610BD34
:10618C0010B54FF47A73044608460021C4E9011394
:10619C00044B23600123207463741146FFF7E4FA67
:1061AC00204610BD2C750B00007C0022FFF7E4BAD2
:1061BC00007CFFF711BB10B514220446002100F03F
:1061CC000DFB204610BD000010B50F4C88B003A885
:1061DC00FFF7F1FF2178BFF35B8F11F001010FD1B5
:1061EC0020460191FDF768FF019948B103AA0748C1
:1061FC00FFF7C6FF2046FDF764FF054800F0DAFA0A
:10620C00024808B010BD00BF00E7032004E70320DC
:10621C0015610B00004700002DE9FF4100241D46CD
:10622C000F4690460646FFF777F9A5424FF0040358
:10623C00ADF80D408DF80C308DF80F40A2BF9DF8D5
:10624C0028308DF80E3003AC0749009443463A468B
:10625C003046A8BF8DF80D50FFF756F9B0FA80F014
:10626C00400904B0BDE8F08121620B00FFF764B96E
:10627C00FFF75AB970474174704708B5007CFFF7B7
:10628C00CBF920EAE07008BD08B5007CFFF79CF95B
:10629C0020EAE07008BD08B5007CFFF7A5F940EADC
:1062AC00E07008BD08B5007CFFF796F940EAE07095
:1062BC0008BD007CFFF7A0B937B5457C04462DB16D
:1062CC00207C03B0BDE83040FFF776B9007C01912B
:1062DC00FFF7A2F900280199F2DC284603B030BD83
:1062EC0010B514210446FDF7D8FE204610BD000061
:1062FC0010B54FF47A730446084611460022C4E9DF
:10630C000123044B2360012320746374FFF78CF981
:10631C00204610BD5C750B007047F8B50646154657
:10632C000C468F18BC4206D0336814F8011B9B68CE
:10633C0030469847F6E72846F8BD007C0022FFF768
:10634C009BB9007C0021FFF79FB9007C0021FFF76F
:10635C00A3B9007C0021FFF7A7B9007C0021FFF74F
:10636C00ABB910B514210446FDF797FE204610BDBD
:10637C0038B5044615464FF47A730022C4E901235C
:10638C00094B2174084623602946FFF7A5F9BF3055
:10639C0008D16B69DB0705D56868FFF7C9FAE868AF
:1063AC00FFF7C6FA204638BD8C750B00007C002226
:1063BC00FFF742B90023007C1A461946FFF744B98F
:1063CC00007C0022FFF748B9C9B2FFF7F9BF007C87
:1063DC000022FFF749B90121FFF7F9BF00224068FD
:1063EC001146FFF74DBA002240681146FFF768BA14
:1063FC00002240681146FFF773BA40680022FFF78D
:10640C0067BA4068002281F00101FFF751BA0023FE
:10641C0040681A461946FFF743BA002340681A46EB
:10642C001946FFF735BA002240681146FFF718BA33
:10643C00406800220221FFF71BBA002340681A466D
:10644C00FFF706BA024B04225A60024A1A607047E0
:10645C0018E70320B4750B00002340681A46FFF7B9
:10646C00F7B9406800220221FFF702BA0022406807
:10647C001146FFF7F5B9002240681146FFF700BA44
:10648C00002340681A461946FFF702BA00234068F9
:10649C001A461946FFF704BA40680021FFF728BADC
:1064AC0040680021FFF72CBA4068002281F00101FE
:1064BC00FFF7FEB940680022FFF70ABA00224068D5
:1064CC001146FFF70DBA002240681146FFF7F8B9E4
:1064DC002DE9F04395B014460D460746FFF7D4FD61
:1064EC0000211C220DA8009100F078F940230C9398
:1064FC0020466B460CAA0021FEF7DEFF044600285E
:10650C004BD1024601216868FFF7BAF90221804697
:10651C0022466868FFF7B4F9009E81462146002E9A
:10652C003BD0002939D17368022B03D00A2B11D030
:10653C00F669F4E7B8F1000FFAD0716906A80431D6
:10654C0007ADFFF7CFFD0FCD3C1D0FC42B6823709B
:10655C004146EDE7B9F1000FEAD07469102201A8A9
:10656C0000F03CF906238DF8143001AD04F108035A
:10657C001834186859682A4603C20833A3421546D2
:10658C00F7D101A906A807ADFFF78CFD0FCD3C1D77
:10659C000FC42B6823704946CAE70098FEF784FFA6
:1065AC00384615B0BDE8F083024B034A1A6000224E
:1065BC005A60704720E70320F0750B00232813B5B1
:1065CC0002D9002002B010BDA0F10B03022B1AD887
:1065DC00174C2178BFF35B8F11F001010BD12046D2
:1065EC000191FDF769FD019928B11248FFF70CFAEA
:1065FC002046FDF766FD0F4B1878FFF78DF8002845
:10660C00DFD10120DEE7012809D800F0ADF8002128
:10661C00007CFFF759F880F00100C0B2D2E70938CE
:10662C000128EED800F060F8007CFEF7EDFFF2E7F1
:10663C00B8E60320BCE60320232838B504460D46F3
:10664C000AD8FF2908D0FFF7B9FF28B12946204600
:10665C00BDE83840FEF738BF38BD38B504460D46A6
:10666C00FEF73AFFFF2810D0062804D84D2323FA52
:10667C0000F0C30709D42046FFF7A0FF28B1294634
:10668C002046BDE83840FEF72FBF38BD10B5044694
:10669C00FEF722FF031FDBB2012B08D92046FFF7C0
:1066AC008DFF20B12046BDE81040FEF725BF00202D
:1066BC0010BD704738B5044614252A46002100F059
:1066CC008DF825804025074925812846258200F034
:1066DC006FF804496060284600F06AF8E0602046D4
:1066EC0038BD00BF24760B0030B50E4D2978BFF3B2
:1066FC005B8F11F0010487B011D12846FDF7DCFC4B
:10670C0068B101A8FFF7D6FF01AA21460648FFF79A
:10671C00EFFD2846FDF7D5FC044800F04BF8024885
:10672C0007B030BD28E703202CE70320BF660B0021
:10673C007047000038B50A4B0360012304464361DF
:10674C000849202000F034F8202560600549A56038
:10675C00284600F02DF8C4E90305204638BD00BFDB
:10676C001800010024760B0030B50E4D2978BFF3CC
:10677C005B8F11F0010487B011D12846FDF79CFC0A
:10678C0068B16846FFF7D6FF6A4621460648FFF710
:10679C00EFFD2846FDF795FC044800F00BF8024885
:1067AC0007B030BD44E7032048E703203D670B00EA
:1067BC00FDF771BC002301461A46184600F04CB890
:1067CC000A44914200F1FF3300D1704710B511F823
:1067DC00014B03F8014F9142F9D110BD024403461D
:1067EC00934200D1704703F8011BF9E738B5104B01
:1067FC001D68AB6B0446B3B91820FFF791F802463D
:10680C00A86320B90B4B0C484221FFF7A9F80B49A0
:10681C000B4BC0E900130B4B83600B2383810021CE
:10682C000120C2E90401AB6B00221C615A6138BD26
:10683C00CCE5032025760B003C760B000E33CDAB5C
:10684C0034126DE6ECDE0500034611F8012B03F85B
:10685C00012B002AF9D170472DE9F843DFF8B880F5
:10686C000646D8F800001F460D46914600F056F833
:10687C00254B1C6834B9254C1C60254B13B11B6887
:10688C00C4F8883063681F2B07DDD8F8000000F0CF
:10689C0047F84FF0FF30BDE8F8834EB3D4F88800CA
:1068AC0088B91C4B23B9D8F8000000F038F8F0E791
:1068BC004FF48470FFF734F80028F4D00023C0E9BB
:1068CC004033C4F88800636840F8239001229A4052
:1068DC0000EB8301D0F800311343C0F80031022ED5
:1068EC00C1F8807002BFD0F804311343C0F80431F2
:1068FC006368D8F800005A1C0233626044F82350D5
:10690C0000F00EF80020C6E7E8E703205CE7032060
:10691C00000000002D590B0030E603207047704733
:10692C00704700002D400B0069400B0091400B009C
:10693C0095400B000000000043616C6C206F6E20D2
:10694C0070757265207669727475616C00436F7531
:10695C006E7465723A2000496E746572727570744B
:10696C00733A20456E61626C65640064656661759E
:10697C006C7420004D5342004C5342003C53504920
:10698C0053657474696E67732064656661756C74A5
:10699C003E003C53504953657474696E67732025EF
:1069AC00732575202573204D4F444525753E0000F9
:1069BC00000000003E5B4F5B3E3E6B4F6B3E1C3E4F
:1069CC007C3E1C183C7E3C181C577D571C1C5E7F63
:1069DC005E1C00183C1800FFE7C3E7FF00182418E2
:1069EC0000FFE7DBE7FF30483A060E262979292617
:1069FC00407F050507407F05253F5A3CE73C5A7F01
:106A0C003E1C1C08081C1C3E7F14227F22145F5F56
:106A1C00005F5F06097F017F006689956A60606090
:106A2C00606094A2FFA29408047E040810207E20CB
:106A3C001008082A1C08081C2A08081E1010101020
:106A4C000C1E0C1E0C30383E3830060E3E0E060066
:106A5C000000000000005F00000007000700147F2A
:106A6C00147F14242A7F2A12231308646236495691
:106A7C0020500008070300001C2241000041221C8A
:106A8C00002A1C7F1C2A08083E0808008070300071
:106A9C000808080808000060600020100804023E86
:106AAC005149453E00427F400072494949462141C7
:106ABC00494D331814127F1027454545393C4A4936
:106ACC004931412111090736494949364649492975
:106ADC001E00001400000040340000000814224185
:106AEC001414141414004122140802015909063E0E
:106AFC00415D594E7C1211127C7F494949363E4109
:106B0C004141227F4141413E7F494949417F090929
:106B1C0009013E414151737F0808087F00417F41C4
:106B2C00002040413F017F081422417F40404040FB
:106B3C007F021C027F7F0408107F3E4141413E7F53
:106B4C00090909063E4151215E7F0919294626494A
:106B5C0049493203017F01033F4040403F1F204021
:106B6C00201F3F4038403F6314081463030478042B
:106B7C00036159494D43007F4141410204081020F3
:106B8C00004141417F04020102044040404040006A
:106B9C000307080020545478407F28444438384474
:106BAC00444428384444287F385454541800087EF0
:106BBC00090218A4A49C787F0804047800447D4042
:106BCC00002040403D007F1028440000417F4000E1
:106BDC007C047804787C080404783844444438FCF9
:106BEC001824241818242418FC7C0804040848547D
:106BFC0054542404043F44243C4040207C1C20403A
:106C0C00201C3C4030403C44281028444C90909030
:106C1C007C4464544C44000836410000007700006A
:106C2C00004136080002010204023C2623263C1EC9
:106C3C00A1A161123A4040207A385454555921553B
:106C4C00557941225454784221555478402054555A
:106C5C0079400C1E527212395555555939545454A9
:106C6C005939555454580000457C410002457D4229
:106C7C000001457C407D1211127DF0282528F07C06
:106C8C00545545002054547C547C0A097F493249A0
:106C9C004949323A4444443A324A4848303A4141EC
:106CAC00217A3A42402078009DA0A07D3D4242428C
:106CBC003D3D4040403D3C24FF2424487E494366F2
:106CCC002B2FFC2F2BFF0929F620C0887E090320CF
:106CDC00545479410000447D413048484A32384090
:106CEC0040227A007A0A0A727D0D19317D262929F3
:106CFC002F28262929292630484D402038080808F5
:106D0C000808080808382F10C8ACBA2F102834FA15
:106D1C0000007B000008142A142222142A1408559F
:106D2C0000550055AA55AA55AAFF55FF55FF00005E
:106D3C0000FF00101010FF00141414FF001010FFBF
:106D4C0000FF1010F010F0141414FC001414F700D1
:106D5C00FF0000FF00FF1414F404FC141417101FA0
:106D6C0010101F101F1414141F00101010F000002E
:106D7C0000001F101010101F10101010F010000049
:106D8C0000FF101010101010101010FF1000000059
:106D9C00FF140000FF00FF00001F10170000FC0490
:106DAC00F414141710171414F404F40000FF00F773
:106DBC0014141414141414F700F7141414171410D6
:106DCC00101F101F141414F4141010F010F0000005
:106DDC001F101F0000001F14000000FC140000F026
:106DEC0010F01010FF10FF141414FF141010101FCB
:106DFC0000000000F010FFFFFFFFFFF0F0F0F0F0DC
:106E0C00FFFFFF0000000000FFFF0F0F0F0F0F38F8
:106E1C0044443844FC4A4A4A347E02020606027E46
:106E2C00027E0263554941633844443C04407E2051
:106E3C001E2006027E020299A5E7A5991C2A492A62
:106E4C001C4C7201724C304A4D4D303048784830F1
:106E5C00BC625A463D3E494949007E0101017E2AE9
:106E6C002A2A2A2A44445F444440514A444040441C
:106E7C004A51400000FF0103E080FF000008086B4E
:106E8C006B083612362436060F090F060000181848
:106E9C000000001010003040FF0101001F01011E16
:106EAC0000191D1712003C3C3C3C00000000000087
:106EBC0000000000000000000000000000000000C6
:106ECC008D490B00895D0B00AD400B0093430B000B
:106EDC0095430B00C7430B00A3430B00B5430B00BA
:106EEC00D5420B0093430B00BF450B00BD450B0077
:106EFC00DF430B001D440B0057440B009D440B005B
:106F0C00B9440B003D450B000000000000000000E0
:106F1C009D4A0B00BD4A0B008D490B00895D0B008F
:106F2C00ED4B0B0093430B0095430B00C7430B0039
:106F3C00A3430B00B5430B00D5420B0093430B004E
:106F4C00BF450B008B4D0B0033530B00E5520B0070
:106F5C0057440B009D440B00B9440B003D450B00FE
:106F6C00000000000000000081420B0055420B00A5
:106F7C0057420B00000000000001800000000000E0
:106F8C00000000000380000000000000000000076B
:106F9C00C000000000000000000007C0000000005E
:106FAC0000000000000FC000000000000000000006
:106FBC001FE00000000000000000001FE0000000C7
:106FCC000000000000003FE0000000000000000096
:106FDC00003FF00000000000000000007FF0000007
:106FEC0000000000001FF87FF0000000000000000F
:106FFC003FFE7FF0000000000000003FFF7FF0002C
:10700C000000000000001FFFFBE00000000000007B
:10701C00000FFFF9FFC00000000000000FFFF9FF98
:10702C00F800000000000007FFF1FFFF0000000067
:10703C00000003FC73FFFF80000000000001FE3F16
:10704C00FFFF80000000000000FF1E0FFF0000008B
:10705C00000000007FFE1FFC000000000000003F4D
:10706C00FFFFF8000000000000000FDFFFE0000051
:10707C0000000000001F19FFC0000000000000000D
:10708C003F3CFF00000000000000007E7CF8000088
:10709C000000000000007FFE7C00000000000000EB
:1070AC0000FFFFFC0000000000000000FFFFFE00DE
:1070BC0000000000000000FFFFFE000000000000C8
:1070CC000001FFEFFE0000000000000001FFCFFEFA
:1070DC000000000000000003FF07FE00000000009D
:1070EC00000003FC07FE0000000000000003F0039A
:1070FC00FE00000000000000018000FE0000000007
:10710C000000000000007E000000000000000000F5
:10711C00003E000000000000000000000C00000019
:10712C00000000078000FC000003C0000000078086
:10713C0001FC000003C0000000078001FC000003FC
:10714C00C0000000078001E00000001E00000007E6
:10715C008001E00000001E007FE3F79FF9FDE77857
:10716C007BDFC0FFF7FFBFFDFDFF787BDFC0FFF7C4
:10717C00FFBFFDFDFF787BDFC0F0F787BC3DE1FF73
:10718C00787BDE00F0F787BC3DE1F0787BDE000019
:10719C00F787803DE1E0787BDE007FF7879FFDE19C
:1071AC00E0787BDE00FFF787BFFDE1E0787BDE0057
:1071BC00F0F787BC3DE1E0787BDE00F0F787BC3D63
:1071CC00E1E0787BDE00F0F787BC3DE1E0787BDE28
:1071DC0000FFF7FFBFFDE1E07FFBDFC0FFF7FFBF64
:1071EC00FDE1E07FFBDFC07CF3F39F3DE1E03E7B04
:1071FC00CFC00000000000000000000000FFFFFFF7
:10720C00FFFFFFFFFFFFFFC0FFFFFFFFFD68DB116C
:10721C001A31C0FFFFFFFFFD2B5AFB6AEFC0FFFFC7
:10722C00FFFFFD4B5B3B1A33C0FFFFFFFFFD6B5BAA
:10723C00DB6AFDC0000060000000000000000000E0
:10724C000000000000E00000000000000000000052
:10725C0000000001E0000000000000000000000041
:10726C00000001F000000000000000000000000021
:10727C000003F0000000000000000000000000000F
:10728C0007F00000000000000000000000000007F4
:10729C00F8000000000000000000000000000FF8E3
:1072AC0000000003C0007E000001E0007F0FF8002A
:1072BC00000003C000FE000001E000FFEFF800003A
:1072CC000003C000FE000001E000FFFFF80000001A
:1072DC0003C000F00000000F007FFE7FC000000321
:1072EC00C000F00000000F003FFE7FF83FF1FBCF25
:1072FC00FCFEF3BC3DEFE01FFE7FFF7FFBFFDFFEDC
:10730C00FEFFBC3DEFE01FC6FFFF7FFBFFDFFEFE75
:10731C00FFBC3DEFE00FE3C7FE787BC3DE1EF0FF42
:10732C00BC3DEF0007FF87FC787BC3DE1EF0F83C0A
:10733C003DEF0001FFFFF0007BC3C01EF0F03C3DB1
:10734C00EF0001F37FE03FFBC3CFFEF0F03C3DEFDD
:10735C000003E33F807FFBC3DFFEF0F03C3DEF001A
:10736C0007E73C00787BC3DE1EF0F03C3DEF0007E6
:10737C00FFBE00787BC3DE1EF0F03C3DEF0007FF44
:10738C00FE00787BC3DE1EF0F03C3DEF000FFFFEED
:10739C00007FFBFFDFFEF0F03FFDEFE00FFFFF0093
:1073AC007FFBFFDFFEF0F03FFDEFE00FF9FF003E4B
:1073BC0079F9CF9EF0F01F3DE7E01FF1FF000000D0
:1073CC000000000000000000001F80FF007FFFFF96
:1073DC00FFFFFFFFFFFFFFE01C007F007FFFFFFFB1
:1073EC00FEB46D888D18E000001F007FFFFFFFFECC
:1073FC0095AD7DB577E000000F007FFFFFFFFEA588
:10740C00AD9D8D19E0000006007FFFFFFFFEB5ADBE
:10741C00EDB57EE00000000000000000C14B0B0049
:10742C00D94B0B008D490B00895D0B00ED4B0B000C
:10743C0093430B0095430B00C7430B00A3430B0076
:10744C00B5430B00D5420B0093430B00BF450B001B
:10745C008B4D0B0033530B00E5520B0057440B00C4
:10746C009D440B00B9440B003D450B000080C0E06F
:10747C00F0F8FCFE000103070F1F3F7FAED580A87C
:10748C00D300408D2000A1C8DB40A4A62EAFDA02A9
:10749C00818FDA1281DA02812200FF2100000000C4
:1074AC000000000000000000EB590B00E1590B003C
:1074BC00D7590B00CD590B00C1590B00B5590B0016
:1074CC00A5640B00AD640B00A9590B00A1590B006E
:1074DC0097590B008D590B00DD640B000008101838
:1074EC00202830386170700025592D256D2D2564AC
:1074FC005425483A254D3A2553257A006173637417
:10750C00696D6500000000000000000031600B0098
:10751C0021600B0023600B00000000000000000045
:10752C0017610B007F610B0055610B00895D0B002F
:10753C0047610B0019610B0029610B0079610B008D
:10754C0039610B0011610B0000000000000000000D
:10755C0081620B00ED620B00C5620B00895D0B00B4
:10756C0095620B00B1620B00A3620B00BF620B00B3
:10757C0083620B0087620B0000000000000000001B
:10758C0025630B006F630B0047630B0027630B0035
:10759C004F630B0057630B005F630B0067630B00BB
:1075AC00000000000000000047640B003D640B006D
:1075BC0033640B00E9630B0027640B001B640B00A6
:1075CC00A5640B00AD640B000F640B0007640B008B
:1075DC00FD630B00F3630B00DD640B000000000087
:1075EC000000000065640B006F640B0079640B00F5
:1075FC0083640B008D640B0099640B00A5640B0075
:10760C00AD640B00B5640B00C1640B00C9640B00C6
:10761C00D3640B00DD640B00005245454E54206DC5
:10762C00616C6C6F6320737563636565646564007E
:10763C002F6D6E742F776F726B73706163652F771C
:10764C006F726B73706163652F4743432D31302D1F
:10765C00706970656C696E652F6A656E6B696E73A7
:10766C002D4743432D31302D706970656C696E6503
:10767C002D34385F32303230313132345F31363084
:10768C00363138303634312F7372632F6E65776C28
:10769C0069622F6E65776C69622F6C6962632F73F8
:1076AC0074646C69622F72616E642E63000000005A
:1076BC0021420B00F5590B006D5B0B00795D0B0043
:1076CC00B15E0B00C15E0B00DD5E0B0051640B0064
:0476DC00B5650B0085
:1076E000040000001400000003000000474E550095
:1076F000BBE7A1F68D80447859C76DB39F779BC2D5
:04770000CEDB67195C
:1077040008750B00D0E50320000000000000000015
:107714000000000000000000000000000000000065
:107724000000000000000000000000000000000055
:107734000000000000000000000000000000000045
:107744000000000000000000000000000000000035
:107754000000000000000000000000000000000025
:0C7764000000000000000000ECE7032023
:047770000000000015
:10777A0000000102030405060708090A0B0C0D0E96
:10778A000F101112131415161718191A1B1C1D1E87
:04779A001F20280084
:04779E0078563412D3
:04000003B000401CED
:00000001FF
